:020000020000FC
:1000000008E00EBF0FEF0DBF0E945E000C940400CD
:100010000FE015E427E639E848E110231270202BA1
:10002000002330273327142F102302952023122B6F
:1000300007FB42F97894F894089505E2007F0033B5
:1000400008950FEF102F202F302F402F502F16958F
:100050001695220F220F359535958894479547952B
:100060008894551F551F08950EE316E620E838EED4
:10007000010F120F230F08950AEF18EC002E010E46
:10008000079408950AEF18EC2AEF38EC1124222483
:10009000002E010E121C020E121C030E121C1794CD
:1000A00007941794079408950EE316E6019F06E659
:1000B00010E8019F00E818EE019F089504E11AE09E
:1000C000010204E116EF01020CEE16EF01020895A1
:00000001FF
